:020000040800F2
:1000000048060020E1020008296800087163000822
:10001000B1670008F10300086183000800000000D8
:10002000000000000000000000000000E16E000879
:10003000810A000800000000616B0008C96F000819
:10004000FB020008FB020008FB020008FB0200089C
:10005000FB020008FB020008FB020008FB0200088C
:10006000FB020008FB020008FB020008290400084C
:1000700039040008FB020008FB020008FB0200082C
:10008000FB020008FB020008FB020008990A0008B6
:10009000B90A0008A90A0008C90A0008FB020008FA
:1000A000FB020008FB020008FB020008FB0200083C
:1000B000FB020008FB020008FB020008FB0200082C
:1000C000FB020008FB020008FB020008FB0200081C
:1000D000FB020008E9820008FB020008FB0200089E
:1000E000FB020008FB02000800000000FB02000801
:1000F000FB020008FB020008FB020008FB020008EC
:10010000FB020008FB020008FB020008FB020008DB
:10011000FB020008FB020008FB020008FB020008CB
:10012000FB020008FB020008FB020008FB020008BB
:10013000FB020008FB020008FB020008F90A0008A5
:1001400000000000000000000000000000000000AF
:10015000FB020008FB020008FB020008FB0200088B
:10016000FB020008FB020008FB020008FB0200087B
:10017000FB020008FB020008FB0200080000000070
:10018000FB020008FB020008FB020008FB0200085B
:10019000FB020008FB020008FB020008FB0200084B
:1001A000FB020008FB020008FB0200080000000040
:1001B000FB020008FB020008FB020008FB0200082B
:1001C000FB020008FB020008000000000000000025
:1001D0000000000000000000FB020008000000001A
:1001E000000000000000000000000000000000000F
:1001F0000000000000000000FB020008FB020008F5
:10020000FB020008FB02000800000000FB020008DF
:10021000FB020008FB020008FB020008FB020008CA
:10022000FB02000800000000FB02000800000000C4
:10023000FB020008FB02000800000000FB020008AF
:10024000FB020008FB020008FB020008FB0200089A
:10025000FB020008FB020008FB020008FB0200088A
:10026000FB020008FB020008FB020008FB0200087A
:10027000FB020008FB020008FB020008000000006F
:10028000FB020008FB020008FB020008FB0200085A
:1002900000000000FB020008FB0200080000000054
:1002A00000000000FB020008FB020008FB0200083F
:1002B000FB020008FB020008FB020008D90A000844
:1002C000E90A0008FB020008FB020008DFF80CD076
:1002D00000F07AF800480047B18400084806002082
:1002E0000648804706480047FEE7FEE7FEE7FEE7D0
:1002F000FEE7FEE7FEE7FEE7FEE7FEE779700008AF
:10030000CD0200082DE9F05F0546002092469B468D
:1003100088460646814640241BE02846414647461B
:10032000224600F041F853465A46C01A914110D374
:1003300011461846224600F028F82D1A67EB0108EE
:100340004F4622460120002100F01FF817EB00095C
:100350004E41201EA4F10104DFDC484631462A4606
:100360004346BDE8F09FD2B201E000F8012B491EE0
:10037000FBD270470022F6E710B513460A46044642
:100380001946FFF7F0FF204610BD202A04DB203A73
:1003900000FA02F1002070479140C2F1200320FAD8
:1003A00003F3194390407047202A04DB203A21FAD6
:1003B00002F00021704721FA02F3D040C2F120027E
:1003C0009140084319467047064C074D06E0E06827
:1003D00040F0010394E8070098471034AC42F6D38C
:1003E000FFF778FF6C860008AC860008000000006C
:1003F000FEE700000000000010B582B040F24C148F
:100400000021C2F200440222012301200090204674
:1004100002F0AAFD204603F053FA012100222046F3
:1004200002F02EFD02B010BD80B540F24400C2F2D1
:10043000000001F059FA80BD80B540F23400C2F2EC
:10044000004001F051FA80BD40F20F420168C4F251
:100450000202914210DC6F22C4F20202914220DCBF
:100460003F22C4F20202914236DC1022C4F20202A0
:10047000914254D028224EE040F26F42C4F2020270
:1004800091421ADC40F23F42C4F2020291422ADC5D
:1004900040F21042C4F20202914240D040F228429F
:1004A00039E09F22C4F20202914225DC7022C4F29C
:1004B0000202914233D088222DE040F29F42C4F2E2
:1004C000020291421FDC40F27042C4F202029142E9
:1004D00025D040F288421EE04022C4F2020291423E
:1004E0001DD0582217E040F24042C4F2020291426D
:1004F00015D040F258420EE0A022C4F2020291420E
:100500000DD0B82207E040F2B842C4F20202914294
:1005100005D040F2A042C4F2020291421AD1D0F8B2
:1005200000C06FF00F024AF6AB2352FA8CF2CAF603
:10053000AA23A2FB033109A35F2AC1F302115B5C6A
:1005400040F2FF312CEA0101C36588BF04318165A7
:1005500008467047016821F0FF01F8E70006101611
:10056000000610160000000010B545F25742016861
:10057000C5F6020291420EDC45F22F42C5F6020298
:10058000914217DC45F20842C5F60202914226D09C
:1005900045F21C421FE045F27F42C5F6020291423D
:1005A00011DC45F25842C5F60202914217D045F2DD
:1005B0006C4210E045F23042C5F6020291420ED084
:1005C00045F2444207E045F29442C5F602029142E8
:1005D00005D045F28042C5F60202914219D1017858
:1005E0004CF6CD42CCF6CC4245F600030839C5F6B0
:1005F0000203A1FB021203F18001120903EB820343
:1006000002F01F0203660123416603FA02F18166CC
:1006100010BD02784AF6AB23CAF6AA234FF0080EA3
:10062000103AA2FB032340F20F42C4F202024FEA47
:10063000131C914202F1AA04624688BF0EEB13120A
:1006400040F60003A142C4F2020303F1800128BF77
:100650006246D3E70000000010B50279511E072959
:1006600088BF10BD45F2574C45F6FC0E0368C5F631
:10067000020CC5F6020E63450EF1440C0EDC45F289
:100680002F44C5F60204A34217DC45F20844C5F620
:100690000204A34226D045F21C441FE045F27F44E9
:1006A000C5F60204A34211DC45F25844C5F6020423
:1006B000A34217D045F26C4410E045F23044C5F631
:1006C0000204A3420ED045F2444407E045F28044C0
:1006D000C5F60204A34205D045F29444C5F60204CF
:1006E000A34209D10EEB8202C2660122C0F870C09B
:1006F00002FA01F1416710BD40F6FC0EC4F2020E91
:100700000EF1440CEEE700008169B1F5005F07D0FF
:1007100079B9816A022912D0012916D079B112E083
:10072000816A03290FD8DFE801F0020A02100120D4
:100730007047816A03293CBF0120704703D1C06A1A
:10074000C0F30060704700207047C06AA0F1C0701D
:10075000B0FA80F04009704770B540F26F44D0F8AD
:1007600000E0C4F20204D0F858C0A64519DC9F2569
:10077000C4F20205AE4531DC5725C4F20205AE4590
:1007800056DC1025C4F20205AE4500F09280282503
:10079000C4F20205AE4500F08C804025C4F202058B
:1007A00084E045F22F45C5F60205AE452BDC40F24C
:1007B000B745C4F20205AE4548DC40F27045C4F2CC
:1007C0000205AE4575D040F28845C4F20205AE453B
:1007D0006FD040F2A045C4F2020567E040F2274521
:1007E000C4F20205AE4540DCA025C4F20205AE45C8
:1007F0005FD0B825C4F20205AE455AD040F210458C
:10080000C4F2020552E045F26B45C5F60205AE455D
:100810003CDC45F23045C5F60205AE4549D045F20F
:100820004445C5F60205AE4543D045F258453BE088
:100830005825C4F20205AE453BD07025C4F202052E
:10084000AE4536D08825C4F202052FE040F2B84507
:10085000C4F20205AE452CD045F20845C5F60205A6
:10086000AE4526D045F21C451EE040F22845C4F2B4
:100870000205AE451DD040F24045C4F20205AE452A
:1008800017D040F25845C4F202050FE045F26C451E
:10089000C5F60205AE450CD045F29445C5F60205F5
:1008A000AE4506D045F28045C5F60205AE4540F09E
:1008B000C980456EC66E002E866E6E601CBFD0E984
:1008C0001C566E60A64515DC9F24C4F20204A645A2
:1008D0002BDC5724C4F20204A6454EDC1024C4F2DB
:1008E0000204A64576D02824C4F20204A64571D09D
:1008F00040246BE045F22F44C5F60204A64527DCF0
:1009000040F2B744C4F20204A64542DC40F270440F
:10091000C4F20204A6455DD040F28844C4F2020449
:10092000A64557D040F2A04450E040F22744C4F21C
:100930000204A6453CDCA024C4F20204A64549D02A
:10094000B824C4F20204A64544D040F210443DE06D
:1009500045F26B44C5F60204A6454FDC45F230442F
:10096000C5F60204A6455BD045F24444C5F6020430
:10097000A64555D045F258444EE05824C4F202042E
:10098000A64527D07024C4F20204A64522D08824AC
:100990001CE040F2B844C4F20204A6451AD045F265
:1009A0000844C5F60204A6453AD045F21C4433E09B
:1009B00040F22844C4F20204A6450BD040F2404461
:1009C000C4F20204A64505D040F25844C4F2020421
:1009D000A64537D104683F258668C06D00F01F002A
:1009E000402E05FA00F0CCF80800206820F48020A2
:1009F0002060636021D0A160E26070BD45F26C446C
:100A0000C5F60204A6450BD045F28044C5F60204A3
:100A1000A64505D045F29444C5F60204A64511D179
:100A20000468C66D806806F01F060125402805FA97
:100A300006F6CCF80460636002D1A260E16070BD8C
:100A4000A160E26070BD000080B540F210002C2172
:100A5000C2F20000FFF78EFC40F214010020C2F247
:100A6000004112220882C1E90000C1E9020040F2FF
:100A70007420C2F2004005F0B7FB80BD000000000A
:100A80007047000000000000EFF3108072B600BF56
:100A9000FEE700000000000080B540F2AC00C2F2AA
:100AA000004002F055FB80BD80B540F2AC00C2F2C0
:100AB000004002F04DFB80BD80B540F24C10C2F208
:100AC000004002F045FB80BD80B540F24C10C2F200
:100AD000004002F03DFB80BD80B540F2BC00C2F298
:100AE000000002F035FB80BD80B540F2BC00C2F2D0
:100AF000000002F02DFB80BD80B540F2AC00C2F2D8
:100B0000004002F025FB40F24C10C2F2004002F01F
:100B10001FFB80BD000000002DE9F04F82B001688E
:100B2000C76BD0E90DA2D1F884304FF6FC74A34313
:100B300043EA8A03C1F88430D1F88430019223F467
:100B40007F0343EA0243C1F8843002EB0A03D1F881
:100B500088406FF38F0444EA8304C1F88840D1F8D9
:100B60008840009724F4FE0444EA0744C1F8884012
:100B700003EB4704D1F8A0306FF38F0343EA8403FB
:100B8000C1F8A030D1F8A050D0F840B025F4FE054F
:100B900045EA0B45C1F8A050D0F84480D1F8B050D8
:100BA0006FF38F0508FB0B4408FB0BF845EA84053F
:100BB000C1F8B050D1F8B060856C26F4FE0646EA64
:100BC0000546C1F8B060D0F84C9009FB0547D1F854
:100BD000AC406FF38F0409FB05F944EA8704C1F8C0
:100BE000AC40D0E9144606FB0472D1F8F0706FF304
:100BF0008F0747EA8207C1F8F070D1F8F030876DAF
:100C000023F47C1343EA0743C1F8F03002EB4702B8
:100C1000D1F8C0306FF38F0343EA8202C1F8C020DD
:100C2000D1F8C020C36D22F47C1242EA0342C1F81D
:100C3000C0204AF60042D1F8C0C0D0F860E0C4F24B
:100C40000002019D02EB8A022CF07C5C06FB04FA98
:100C5000009C4CEA0E6C02EB8505C1F8C0C005EBA8
:100C6000C406846E06EB8801056701EB890C6343BB
:100C70000CEB8A05C266C0E91E1C0EFB04F105EBF5
:100C8000C70707EB8303C0F884704DF2FC37466753
:100C900003EB8101C4F20007B942C0F88050C0F8EC
:100CA0008830C0F890100AD9D0F89C1041F020018B
:100CB000C0F89C10032180F8981001210CE0D0F8B6
:100CC00090108A4207D2002142F8041BD0F89030DD
:100CD0009A42F9D300E00021084602B0BDE8F08F47
:100CE000F0B5D1F804C0D1F810E0BCF1000FD1F894
:100CF00008C006D00C684EEA0C05254345F0804C30
:100D000004E00D684CEA0E0444EA854C856ED0F888
:100D10008470D1E907466B438D6944EA0660D1F8D7
:100D200014E0CC68054307EB830045EA0E0647F85C
:100D300023C046EA04434360CB68002B08BFF0BDE4
:100D400048F24C6C083001320023C0F6000C00BFA2
:100D5000D71857F8017CC750CF6804331CF80770C8
:100D6000BB42F5D3F0BD0000F0B581B02DED028B94
:100D700040F208320C46C2F20042054613785BB9D5
:100D800040F20C3040F24421C2F20040C2F20001B5
:100D9000406A0860012010701078002800F0DE80A2
:100DA00040F2100140F20C07C2F20001C2F200470B
:100DB0009FED6C2A002291ED000A97ED001A087D44
:100DC00000EE021A40F240060328C2F2000608BFF5
:100DD0004FF4FA62497D032C328087ED001A49D224
:100DE000032818BF032940F08A8040F20C35002008
:100DF000C2F20045032904BF4FF60C60CFF6FF7026
:100E0000B5F90410401A00EE100A05F13000B8EEF2
:100E1000C00A05F05DFDB6F90000B5F91010BDEE91
:100E2000C01A40F22807401AC2F2004700EE100A2A
:100E300011EE100AB8EEC00A388005F16C0005F01A
:100E400047FDB6F90000B5F91C10BDEEC01A084404
:100E5000404200EE100A11EE100A788005F1A80059
:100E6000B8EEC00A05F034FDBDEEC00A10EE100A5F
:100E7000B8804BE0032C71D140F20C3640F2442094
:100E8000C2F20046C2F2000096ED090A90ED001A87
:100E900030EE410A07F030FA97ED001A40F21000E8
:100EA00031EE401AC2F2004080ED000A06F1E40083
:100EB000B0EE410A05F00CFD40F23007B5F9040030
:100EC000C2F20047B0EE408A9FED270AB7F9001042
:100ED00007F0D6FA00EE100A388006F59070B8EEEA
:100EE000C00A38EE400A05F0F3FCBDEEC00A40F23D
:100EF0002800C2F2004010EE101AC18006E040F255
:100F000028000021C2F200400160818040F24025AB
:100F10000120C2F20005A04055222978084328701C
:100F2000C1B202EA5102891A4FF0333202EA910249
:100F300021F0CC3111444FF0013201EB111121F0BD
:100F4000F0315143090E032908D340F2280004214F
:100F5000C2F2004005F0C8FF00202870BDEC028BF3
:100F600001B0F0BDCDCC4CBE3333333F00000000A8
:100F700070B52DED0C8B40F20C35B3EE048AB2EE59
:100F8000049AC2F2004505F1300400269FED31AA13
:100F90009FED31BA9FED31CA9FED31DA13E000BF0A
:100FA000B0EE480AF0EE4A0A2046B0EE4C1AF0EED7
:100FB0004B1AB0EE4C2AF0EE4D2A05F071FC0136CA
:100FC0003C34032E0FD0204605F052FCF0B202282C
:100FD00018BF0128E4D00028F1D12046B0EE490A1C
:100FE000F0EE4C0AE1E705F1E404204605F040FC90
:100FF0009FED1A8AB5EE002A9FED179AF0EE480A87
:10100000B0EE481AF0EE481AF0EE492A9FED150AA4
:10101000204605F045FC05F59074204605F028FCB7
:10102000F7EE080AB0EE481AF0EE491AB0EE482A78
:101030009FED0D0A2046DFED0D2A05F031FC40F250
:1010400028000021C2F2004041600160BDEC0C8B21
:1010500070BD00BFCDCCCC3E00409C4500000000E0
:1010600000401C46CDCC8C3F0000484300606A46DF
:101070002DE9F041044602F037FD04B3054694F82B
:10108000350002281ED140F20F472068C4F2020743
:1010900040F26F48B842C4F2020817DC6F21C4F274
:1010A0000201884223DC3F21C4F20201884239DC7C
:1010B0001021C4F20201884258D0282151E00120B9
:1010C000BDE8F081802060650120ABE240451ADC7C
:1010D00040F23F41C4F2020188422ADC40F2104152
:1010E000C4F20201884241D040F2284139E09F21F8
:1010F000C4F20201884225DC7021C4F20201884258
:1011000034D088212DE040F29F41C4F20201884290
:101110001FDC40F27041C4F20201884226D040F246
:1011200088411EE04021C4F2020188421ED05821AD
:1011300017E040F24041C4F20201884216D040F26A
:1011400058410EE0A021C4F2020188420ED0B8211D
:1011500007E040F2B841C4F20201884206D040F2F2
:10116000A041C4F20201884240F0EA812668316859
:1011700021F01E02314641F8142B6FF080020B68FB
:10118000404502EA03020A6019DC9F21C4F2020111
:10119000884231DC5721C4F20201884256DC10211A
:1011A000C4F20201884200F091802821C4F20201B9
:1011B000884200F08B804021C4F2020184E045F2B5
:1011C0002F41C5F6020188422BDC40F2B741C4F240
:1011D0000201884248DC40F27041C4F202018842B8
:1011E00074D040F28841C4F2020188426ED040F2CD
:1011F000A041C4F2020167E040F22741C4F20201BB
:10120000884240DCA021C4F2020188425ED0B821AD
:10121000C4F20201884259D040F21041C4F20201E6
:1012200052E045F26B41C5F6020188423CDC45F2D2
:101230003041C5F60201884248D045F24441C5F626
:101240000201884242D045F258413BE05821C4F2A5
:10125000020188423AD07021C4F20201884235D09E
:101260008821C4F202012FE040F2B841C4F2020129
:1012700088422BD045F20841C5F60201884225D0AC
:1012800045F21C411EE040F22841C4F202018842AE
:101290001CD040F24041C4F20201884216D040F214
:1012A0005841C4F202010FE045F26C41C5F602015B
:1012B00088420BD045F29441C5F60201884205D020
:1012C00045F28041C5F60201884269D1216EB842DB
:1012D0000A6822F480720A6010DC6F21C4F20201F5
:1012E00088421CDC3F21C4F20201884232DC10211A
:1012F000C4F20201884252D028214AE040451ADC5B
:1013000040F23F41C4F2020188422ADC40F210411F
:10131000C4F20201884242D040F2284139E09F21C4
:10132000C4F20201884225DC7021C4F20201884225
:1013300035D088212DE040F29F41C4F2020188425D
:101340001FDC40F27041C4F20201884227D040F213
:1013500088411EE04021C4F2020188421FD058217A
:1013600017E040F24041C4F20201884217D040F237
:1013700058410EE0A021C4F2020188420FD0B821EA
:1013800007E040F2B841C4F20201884207D040F2BF
:10139000A041C4F20201884208BF206800E0206832
:1013A000016821F0010101603068C0070BD002F034
:1013B0009BFB401B0628F7D320206065032084F8A0
:1013C000350001202EE12068B84210DC6F21C4F204
:1013D000020188421CDC3F21C4F20201884232DC57
:1013E0001021C4F20201884250D028214AE0404531
:1013F0001ADC40F23F41C4F2020188422ADC40F28A
:101400001041C4F20201884240D040F2284139E044
:101410009F21C4F20201884225DC7021C4F202013E
:10142000884233D088212DE040F29F41C4F202016E
:1014300088421FDC40F27041C4F20201884225D08C
:1014400040F288411EE04021C4F2020188421DD0D2
:10145000582117E040F24041C4F20201884215D001
:1014600040F258410EE0A021C4F2020188420DD0A2
:10147000B82107E040F2B841C4F20201884205D029
:1014800040F2A041C4F2020188425ED1D4E91612B2
:1014900002F01F023F2303FA02F28A6040455EDC3D
:1014A0009F21C4F20201884214DC5721C4F20201D8
:1014B000884226DC1021C4F20201884200F0A2809A
:1014C0002821C4F20201884200F09C804021C4F22D
:1014D000020195E040F22741C4F2020188421EDC7D
:1014E000A021C4F20201884200F08C80B821C4F22D
:1014F0000201884200F0868040F21041C4F20201ED
:101500007EE05821C4F2020188427BD07021C4F2EF
:101510000201884276D08821C4F2020170E040F2D4
:101520002841C4F2020188426CD040F24041C4F22A
:101530000201884266D040F25841C4F202015FE0E5
:1015400021686FF00E020E4619E6D4E9161202F079
:101550001F02012303FA02F24A604045A0DD45F272
:101560002F41C5F60201884216DC40F2B741C4F2B1
:101570000201884225DC40F27041C4F20201884237
:1015800040D040F28841C4F2020188423AD040F291
:10159000A041C4F2020133E045F26B41C5F60201FD
:1015A00088421DDC45F23041C5F60201884229D04F
:1015B00045F24441C5F60201884223D045F2584124
:1015C0001CE040F2B841C4F2020188421AD045F250
:1015D0000841C5F60201884214D045F21C410DE0D5
:1015E00045F26C41C5F6020188420BD045F29441A8
:1015F000C5F60201884205D045F28041C5F60201D8
:1016000088420BD1616EA26EE06E4A6030B1016813
:1016100021F480710160D4E91C014160012084F84B
:1016200035000020002184F83410BDE8F08100006E
:1016300080B5D8B190F83510022919D140F20F4287
:101640000168C4F20202914216DC6F23C4F2020365
:10165000994226DC3F23C4F2020399423CDC10236A
:10166000C4F2020399425AD0282354E0012080BDDD
:1016700080214165012080BD40F26F43C4F2020326
:1016800099421ADC40F23F43C4F2020399422ADC39
:1016900040F21043C4F20203994240D040F2284382
:1016A00039E09F23C4F20203994225DC7023C4F27F
:1016B0000203994233D088232DE040F29F43C4F2C5
:1016C000020399421FDC40F27043C4F202039942C4
:1016D00025D040F288431EE04023C4F20203994221
:1016E0001DD0582317E040F24043C4F20203994250
:1016F00015D040F258430EE0A023C4F202039942F1
:101700000DD0B82307E040F2B843C4F20203994277
:1017100005D040F2A043C4F20203994270D1914235
:101720004FF0040280F8352010DC6F22C4F2020270
:10173000914220DC3F22C4F20202914236DC1022A8
:10174000C4F20202914254D028224EE040F26F428D
:10175000C4F2020291421ADC40F23F42C4F2020299
:1017600091422ADC40F21042C4F20202914240D07F
:1017700040F2284239E09F22C4F20202914225DC65
:101780007022C4F20202914233D088222DE040F24E
:101790009F42C4F2020291421FDC40F27042C4F246
:1017A0000202914225D040F288421EE04022C4F25B
:1017B000020291421DD0582217E040F24042C4F28A
:1017C0000202914215D040F258420EE0A022C4F22B
:1017D000020291420DD0B82207E040F2B842C4F2B2
:1017E0000202914205D040F2A042C4F202029142AC
:1017F00024D10068016821F001010160002080BD52
:101800000268136823F00E03136045F25742C5F6D1
:10181000020291420A6822F001020A6014DC45F2D9
:101820002F42C5F6020291421DDC45F20842C5F680
:10183000020291422CD045F21C4225E0086820F0BB
:1018400001000860002080BD45F27F42C5F602021B
:10185000914211DC45F25842C5F60202914217D07E
:1018600045F26C4210E045F23042C5F60202914268
:101870000ED045F2444207E045F29442C5F602021A
:10188000914205D045F28042C5F6020291421AD13A
:10189000D0E9181CD0E916E30A6822F480720A60C5
:1018A00003F01F01012202FA01F1CEF80410816E4B
:1018B000CCF80410C16E31B10A6822F480720A605B
:1018C000D0E91C124A60012180F83510026D002118
:1018D00080F834100AB190470021084680BD00000E
:1018E000406D7047000000002DE9F04381B00021F9
:1018F000009140F204010446C2F2000140F26F4937
:10190000A56DC4F20209086848F2B511C1F64E315E
:101910002668A0FB01084E452F682A6815DC9F2029
:10192000C4F2020086422BDC5720C4F20200864239
:101930004FDC1020C4F20200864278D02820C4F286
:101940000200864273D040206CE045F22F40C5F67D
:101950000200864227DC40F2B740C4F20200864211
:1019600043DC40F27040C4F2020086425FD040F295
:101970008840C4F20200864259D040F2A04051E0B3
:1019800040F22740C4F2020086423DDCA020C4F2AF
:10199000020086424BD0B820C4F20200864246D0F4
:1019A00040F210403EE045F26B40C5F60200864230
:1019B00074DC45F23040C5F60200864200F08180BA
:1019C00045F24440C5F6020086427AD045F25840BE
:1019D00072E05820C4F20200864228D07020C4F27F
:1019E0000200864223D088201CE040F2B840C4F2B6
:1019F000020086421BD045F20840C5F6020086422E
:101A00005FD045F21C4057E040F22840C4F202008B
:101A100086420CD040F24040C4F20200864206D01A
:101A200040F25840C4F20200864240F0ED84E06D7E
:101A300000F01F01082000FA01F23A4200F0148180
:101A400040F20F40C4F20200864213DC6F20C4F261
:101A50000200864200F38E803F20C4F202008642DC
:101A600000F3CF801020C4F20200864200F0ED8027
:101A70002820E5E04E4500F3898040F23F40C4F263
:101A80000200864200F3C48040F21040C4F202001B
:101A9000864200F0DA8040F22840D1E045F26C4006
:101AA000C5F6020086420CD045F28040C5F6020021
:101AB000864206D045F29440C5F60200864240F0C8
:101AC000A3842068E16D01F01F010368580727D542
:101AD0000420884010EA020722D01904686000F14F
:101AE0008780980600F18C8440F20F40C4F2020017
:101AF000864200F3AB836F20C4F20200864200F3FB
:101B0000E6833F20C4F20200864200F35084102096
:101B1000C4F20200864200F06D84282000F066BC0A
:101B2000980742D50220884010EA02073DD01904E8
:101B3000686000F10E83980600F1988440F20F402F
:101B4000C4F20200864200F3AF836F20C4F20200A9
:101B5000864200F311843F20C4F20200864200F363
:101B600056841020C4F20200864200F073842820BC
:101B700000F06CBC9F20C4F20200864251DC702051
:101B8000C4F20200864260D0882059E040F29F40B3
:101B9000C4F2020086424BDC40F27040C4F2020004
:101BA000864252D040F288404AE0180740F12C8427
:101BB00008208840104000F0278440F20F40C4F213
:101BC0000200864200F32C836F20C4F2020086429A
:101BD00000F34F833F20C4F20200864200F3938358
:101BE0001020C4F20200864200F0B1832820A9E34D
:101BF000D80300F1B482A16C002940F00C8300F0FE
:101C000003BC4020C4F2020086421ED0582017E0D8
:101C100040F24040C4F20200864216D040F25840E2
:101C20000EE0A020C4F2020086420ED0B82007E0E9
:101C300040F2B840C4F20200864206D040F2A04012
:101C4000C4F20200864240F08E82206804230068BD
:101C5000184209D02068036823F004030360AA60D7
:101C6000606D40F001006065012000FA01F23A4227
:101C700070D040F20F40C4F20200864210DC6F20A8
:101C8000C4F2020086421CDC3F20C4F202008642FD
:101C900032DC1020C4F20200864251D028204AE0F3
:101CA0004E451ADC40F23F40C4F2020086422ADC74
:101CB00040F21040C4F20200864241D040F2284077
:101CC00039E09F20C4F20200864225DC7020C4F275
:101CD0000200864234D088202DE040F29F40C4F2BA
:101CE000020086421FDC40F27040C4F202008642CD
:101CF00026D040F288401EE04020C4F20200864216
:101D00001ED0582017E040F24040C4F20200864244
:101D100016D040F258400EE0A020C4F202008642E5
:101D20000ED0B82007E040F2B840C4F2020086426C
:101D300006D040F2A040C4F20200864240F0168273
:101D40002068406900F0800020B1AA60606D40F01A
:101D500002006065042000FA01F23A4270D040F2BD
:101D60000F40C4F20200864210DC6F20C4F2020071
:101D700086421CDC3F20C4F20200864232DC102086
:101D8000C4F20200864251D028204AE04E451ADCB7
:101D900040F23F40C4F2020086422ADC40F210408A
:101DA000C4F20200864241D040F2284039E09F2030
:101DB000C4F20200864225DC7020C4F20200864292
:101DC00034D088202DE040F29F40C4F202008642C9
:101DD0001FDC40F27040C4F20200864226D040F27E
:101DE00088401EE04020C4F2020086421ED05820E7
:101DF00017E040F24040C4F20200864216D040F2A2
:101E000058400EE0A020C4F2020086420ED0B82056
:101E100007E040F2B840C4F20200864206D040F229
:101E2000A040C4F20200864240F0A681206800680B
:101E300000F0020020B1AA60606D40F0040060650F
:101E4000102000FA01F139427ED040F20F40C4F276
:101E50000200864210DC6F20C4F2020086421CDCC5
:101E60003F20C4F20200864232DC1020C4F202009D
:101E7000864251D028204AE04E451ADC40F23F40CD
:101E8000C4F2020086422ADC40F21040C4F2020092
:101E9000864241D040F2284039E09F20C4F202003F
:101EA000864225DC7020C4F20200864234D08820AD
:101EB0002DE040F29F40C4F2020086421FDC40F257
:101EC0007040C4F20200864226D040F288401EE0F4
:101ED0004020C4F2020086421ED0582017E040F293
:101EE0004040C4F20200864216D040F258400EE054
:101EF000A020C4F2020086420ED0B82007E040F2D3
:101F0000B840C4F20200864206D040F2A040C4F2BB
:101F10000200864240F0368126680822306810426E
:101F200012D0A960206801684903016806D4C90578
:101F300006D4016821F00801016001E008034FD4D4
:101F4000216C09B120468847E06D202100F01F0078
:101F50008140394200F0AE8040F20F432268C4F263
:101F600002039A4210DC6F23C4F202039A421CDC83
:101F70003F23C4F202039A4236DC1023C4F2020368
:101F80009A4255D028234EE04A451ADC40F23F439E
:101F9000C4F202039A422EDC40F21043C4F2020360
:101FA0009A4245D040F228433DE09F23C4F2020309
:101FB0009A4229DC7023C4F202039A4238D0882363
:101FC00031E040F29F43C4F202039A4223DC40F224
:101FD0007043C4F202039A422AD040F2884322E0BE
:101FE000A16C0029AED1AFE74023C4F202039A42AC
:101FF0001ED0582317E040F24043C4F202039A4235
:1020000016D040F258430EE0A023C4F202039A42D5
:102010000ED0B82307E040F2B843C4F202039A425C
:1020200006D040F2A043C4F202039A4240F0AC80D2
:102030002268102312681A423CD0A96094F8352017
:102040002168042A0A681DD122F016020A604A6932
:1020500022F080024A61226C0AB9A26C1AB10A68A5
:1020600022F008020A603F2101FA00F0A860012076
:1020700084F83500216D0020002984F8340040F0F8
:10208000CA80C1E1500308680CD4C0050ED40868AA
:1020900020F010000860012084F83500002084F84A
:1020A000340003E0000301D4616C00E0E16B09B18E
:1020B00020468847606D002800F0A681606DC0074B
:1020C00000F0A580042084F8350040F20F4120681C
:1020D000C4F20201884210DC6F21C4F2020188427E
:1020E0001CDC3F21C4F2020188424FDC1021C4F203
:1020F000020188426FD0282167E048451ADC40F28F
:102100003F41C4F20201884247DC40F21041C4F270
:10211000020188425FD040F2284156E09F21C4F27C
:102120000201884242DC7021C4F20201884252D08E
:1021300088214AE040F29F41C4F2020188423CDC1F
:1021400040F27041C4F20201884244D040F288411A
:102150003BE0D80376D4616C00295CD154E1216C5A
:10216000002958D150E10823304670E5306800203E
:1021700000287FF4EAADEDE53068002000287FF408
:102180005AAE5DE60422C9E6022353E74021C4F2B9
:10219000020188421FD0582117E040F24041C4F2AA
:1021A0000201884217D040F258410EE0A021C4F24B
:1021B000020188420FD0B82107E040F2B841C4F2D2
:1021C0000201884207D040F2A041C4F202018842D5
:1021D00008BF206800E020684FEA9821026822F0DA
:1021E00001020260009801300090884203D8206804
:1021F0000068C007F6D120680068C0074FF00300F0
:1022000008BF012084F83500002084F83400E16C18
:10221000002900F0F9802046884701B0BDE8F0832E
:102220004E4532DC40F23F40C4F20200864271DC8F
:1022300040F21040C4F20200864200F0888040F272
:1022400028407FE0E16B0029E5D1DDE04E454BDC25
:1022500040F23F40C4F20200864200F3AF8040F2F9
:102260001040C4F20200864200F0C48040F22840D0
:10227000BCE09F20C4F20200864254DC7020C4F20D
:102280000200864263D088205CE040F29F40C4F2A6
:10229000020086424EDC40F27040C4F202008642E8
:1022A00055D040F288404DE04E4571DC40F23F4051
:1022B000C4F20200864200F3B18040F21040C4F242
:1022C0000200864200F0C68040F22840BEE09F2017
:1022D000C4F2020086427ADC7020C4F20200864218
:1022E00000F08880882081E040F29F40C4F2020024
:1022F000864273DC40F27040C4F20200864279D01C
:1023000040F2884072E04020C4F2020086421ED0B3
:10231000582017E040F24040C4F20200864216D036
:1023200040F258400EE0A020C4F2020086420ED0D7
:10233000B82007E040F2B840C4F20200864206D05E
:1023400040F2A040C4F20200864240F09480266829
:102350006FF01C02306810403060012000FA01F17B
:102360006960606584F835000020E16C84F8340011
:1023700000297FF450AF47E09F20C4F2020086425C
:1023800055DC7020C4F20200864263D088205DE0F4
:1023900040F29F40C4F2020086424FDC40F270409F
:1023A000C4F20200864255D040F288404EE0402000
:1023B000C4F2020086421DD0582017E040F240408F
:1023C000C4F20200864215D040F258400EE0A02030
:1023D000C4F2020086420DD0B82007E040F2B840B7
:1023E000C4F20200864205D040F2A040C4F20200CE
:1023F000864243D126686FF008013068084030609B
:10240000216C00297FF407AF01B0BDE8F0834020C4
:10241000C4F2020086421DD0582017E040F240402E
:10242000C4F20200864215D040F258400EE0A020CF
:10243000C4F2020086420DD0B82007E040F2B84056
:10244000C4F20200864205D040F2A040C4F202006D
:10245000864216D126686FF014013068084030605B
:10246000012084F83500002084F83400E16B002955
:102470007FF4D1AEC8E76FF00E026BE76FF0040196
:10248000BBE76FF00A01E8E72DE9F04381B00446AD
:1024900001F02AFB002C00F0738140F26F480546E2
:1024A0002068C4F20208404515DC9F21C4F20201F5
:1024B00088422BDC5721C4F20201884251DC1021F2
:1024C000C4F2020188427AD02821C4F20201884273
:1024D00075D040216EE045F22F41C5F602018842D9
:1024E00027DC40F2B741C4F20201884245DC40F2E9
:1024F0007041C4F20201884261D040F28841C4F2C6
:10250000020188425BD040F2A04153E040F22741F3
:10251000C4F2020188423FDCA021C4F202018842D9
:102520004DD0B821C4F20201884248D040F2104197
:1025300040E045F26B41C5F60201884200F390800D
:1025400045F23041C5F60201884200F09C8045F218
:102550004441C5F60201884200F0958045F2584199
:102560008CE05821C4F20201884228D07021C4F2C4
:102570000201884223D088211CE040F2B841C4F215
:10258000020188421BD045F20841C5F6020188428B
:1025900079D045F21C4171E040F22841C4F20201B9
:1025A00088420CD040F24041C4F20201884206D079
:1025B00040F25841C4F20201884240F0288240F2C1
:1025C0000F420221C4F2020284F8351090424FF00B
:1025D000000184F8341012DC6F21C4F20201884239
:1025E00020DC3F21C4F20201884200F391801021D7
:1025F000C4F20201884200F0B0802821A7E04045E3
:102600001EDC40F23F41C4F20201884200F38780A1
:1026100040F21041C4F20201884200F09E8040F274
:10262000284194E09F21C4F20201884200F3808097
:102630007021C4F20201884200F08F80882186E078
:1026400040F29F41C4F20201884278DC40F27041BE
:10265000C4F20201884200F0808040F2884176E0B6
:1026600045F26C41C5F6020188420CD045F280412A
:10267000C5F60201884206D045F29441C5F6020132
:10268000884240F0C48104F1080E022084F835002D
:1026900000209EE80640A1F1800384F83400B3FADC
:1026A00083F320685B094029D4E90576D4E9079CC7
:1026B00005684FEA83336FF3101508BF102345EA0E
:1026C000D2014AF6F8321943CAF2FD7241EADE013C
:1026D0004CF6CD4341EAD701024441EAD601CCF69B
:1026E000CC4341EAD901A2FB032341EA1C1101605A
:1026F0006FF0030000EA9300E0652046FDF7A4FEBA
:10270000E16D012201F01F0102FA01F14160B2E026
:102710004021C4F2020188421FD0582117E040F244
:102720004041C4F20201884217D040F258410EE005
:10273000A021C4F2020188420FD0B82107E040F284
:10274000B841C4F20201884207D040F2A041C4F26D
:102750000201884208BF206800E02068016821F07B
:102760000101016027683868C0070DD001F0BCF98D
:10277000401B0628F6D320206065032084F835002E
:10278000012001B0BDE8F08348F23F0104F10805E3
:102790003868CFF6106108402ECD0843A169104378
:1027A000E2691843236A0543606A2943042841EA21
:1027B000020141EA030103D1D4E90B231143194378
:1027C0006268A2F12903292B00F223810125DFE8A9
:1027D00013F02A002A002A002A002A002A002001D9
:1027E00020012001200120012001200120012001E1
:1027F00020012001200120012001200120012A00C8
:102800002A002A002A0020012001200120012A009C
:102810002A002001200120012001200120012A009E
:102820002A002A002A00002D18BF41F48011042834
:102830003960796921F0070141EA000510D1D4E936
:102840000A1045EA010558B12046FDF75DFF38B191
:1028500040206065012084F8350001B0BDE8F083B8
:1028600020467D61FDF7F0FDE16D3F2201F01F0183
:1028700002FA01F181602068404519DC9F21C4F211
:102880000201884231DC5721C4F20201884256DC41
:102890001021C4F20201884200F091802821C4F284
:1028A0000201884200F08B804021C4F2020184E0E2
:1028B00045F22F41C5F6020188422BDC40F2B741B8
:1028C000C4F20201884248DC40F27041C4F20201C5
:1028D000884274D040F28841C4F2020188426ED02E
:1028E00040F2A041C4F2020167E040F22741C4F285
:1028F0000201884240DCA021C4F2020188425ED07D
:10290000B821C4F20201884259D040F21041C4F209
:10291000020152E045F26B41C5F6020188423CDCFF
:1029200045F23041C5F60201884248D045F24441A3
:10293000C5F60201884242D045F258413BE0582199
:10294000C4F2020188423AD07021C4F202018842E6
:1029500035D08821C4F202012FE040F2B841C4F220
:10296000020188422BD045F20841C5F60201884297
:1029700025D045F21C411EE040F22841C4F202017C
:1029800088421CD040F24041C4F20201884216D075
:1029900040F25841C4F202010FE045F26C41C5F625
:1029A000020188420BD045F29441C5F602018842EB
:1029B00005D045F28041C5F6020188421FD120466C
:1029C000FDF7D2FDA068802801D10020606004F1ED
:1029D00060036068C7B201380ECB07280F605360F0
:1029E00009D82046FDF738FE04F16C02002307CA1F
:1029F00003604A6003E000206067C4E91B00002018
:102A00006065012184F8351001B0BDE8F0834020F5
:102A1000B2E622F00302743AB2FA82F2550902E7F2
:102A2000F0B581B0A8B3044690F83400012802D173
:102A3000022001B0F0BD012084F8340094F8350084
:102A4000012820D1022084F835000020606540F282
:102A50000F462068C4F2020640F26F47B042C4F24B
:102A6000020719DC6F25C4F20205A84225DC3F25C8
:102A7000C4F20205A8423BDC1025C4F20205A842BC
:102A80005BD0282553E04FF400606065002084F897
:102A90003400012001B0F0BDB8421ADC40F23F45DD
:102AA000C4F20205A8422ADC40F21045C4F2020535
:102AB000A84242D040F2284539E09F25C4F20205E1
:102AC000A84225DC7025C4F20205A84235D088252D
:102AD0002DE040F29F45C4F20205A8421FDC40F2FF
:102AE0007045C4F20205A84227D040F288451EE096
:102AF0004025C4F20205A8421FD0582517E040F235
:102B00004045C4F20205A84217D040F258450EE0F5
:102B1000A025C4F20205A8420FD0B82507E040F274
:102B2000B845C4F20205A84207D040F2A045C4F25D
:102B30000205A84208BF206800E02068056825F06B
:102B4000010505602046FDF707FE2068B04210DC55
:102B50006F21C4F2020188421CDC3F21C4F2020151
:102B6000884232DC1021C4F20201884251D028216F
:102B70004AE0B8421ADC40F23F41C4F20201884206
:102B80002ADC40F21041C4F20201884241D040F2F6
:102B9000284139E09F21C4F20201884225DC7021DE
:102BA000C4F20201884234D088212DE040F29F41D6
:102BB000C4F2020188421FDC40F27041C4F20201FB
:102BC000884226D040F288411EE04021C4F2020132
:102BD00088421ED0582117E040F24041C4F2020161
:102BE000884216D040F258410EE0A021C4F2020102
:102BF00088420ED0B82107E040F2B841C4F2020189
:102C0000884206D040F2A041C4F20201884240F05E
:102C1000298121680B25226C0B6865F344030B6046
:102C20001AB10A6842F008020A60B84219DC9F2112
:102C3000C4F20201884231DC5721C4F20201884209
:102C400056DC1021C4F20201884200F09180282154
:102C5000C4F20201884200F08B804021C4F20201DC
:102C600084E045F22F41C5F6020188422BDC40F298
:102C7000B741C4F20201884248DC40F27041C4F21C
:102C80000201884274D040F28841C4F202018842B5
:102C90006ED040F2A041C4F2020167E040F2274149
:102CA000C4F20201884240DCA021C4F20201884241
:102CB0005ED0B821C4F20201884259D040F21041DE
:102CC000C4F2020152E045F26B41C5F602018842AE
:102CD0003CDC45F23041C5F60201884248D045F25D
:102CE0004441C5F60201884242D045F258413BE0DA
:102CF0005821C4F2020188423AD07021C4F2020184
:102D0000884235D08821C4F202012FE040F2B84158
:102D1000C4F2020188422BD045F20841C5F60201F7
:102D2000884225D045F21C411EE040F22841C4F201
:102D3000020188421CD040F24041C4F202018842A4
:102D400016D040F25841C4F202010FE045F26C4146
:102D5000C5F6020188420BD045F29441C5F6020146
:102D6000884205D045F28041C5F60201884272D101
:102D7000216E0A68D20303D50A6842F480720A60A1
:102D8000E16E19B10A6842F480720A60B04210DC48
:102D90006F21C4F2020188421CDC3F21C4F202010F
:102DA000884232DC1021C4F20201884252D028212C
:102DB0004AE0B8421ADC40F23F41C4F202018842C4
:102DC0002ADC40F21041C4F20201884242D040F2B3
:102DD000284139E09F21C4F20201884225DC70219C
:102DE000C4F20201884235D088212DE040F29F4193
:102DF000C4F2020188421FDC40F27041C4F20201B9
:102E0000884227D040F288411EE04021C4F20201EE
:102E100088421FD0582117E040F24041C4F202011D
:102E2000884217D040F258410EE0A021C4F20201BE
:102E300088420FD0B82107E040F2B841C4F2020145
:102E4000884207D040F2A041C4F20201884208BF84
:102E5000206800E02068016841F001010160002065
:102E600001B0F0BD21680525226C0B68002A65F3CE
:102E700043030B603FF4D9AE0A6842F00402D3E684
:102E800090F89830013B012B0BD80068836D0B4202
:102E90000CD0836D0B408B420CD1C36D43F0020309
:102EA00009E000F19C010120022221E0C36D43F002
:102EB000010300E00323C3658B0504D5D0F8E0309F
:102EC0001343C0F8E0304B0504D5D0F8E4301A4382
:102ED000C0F8E4204FF6FF72436DC3F6CF720A408C
:102EE0001A4342658A0F4AF614010020C4F2000119
:102EF0000B681A430A607047B0B5044690F8980012
:102F000002281AD12068D0F8C03013F07C5F19D0A5
:102F1000D0F8C4309B021AD4D0F8C400C0F30445E2
:102F200020462B46FDF7DCFE20680121A940C0F8B1
:102F3000D0100020C4F89410B0BDD4F89C0040F02C
:102F4000080008E0D4F89C0040F0200003E0D4F82A
:102F50009C0040F40070C4F89C000120B0BD00004B
:102F6000704700000000000090F898C0BCF1010F0D
:102F70000DD19200006842EA0111DDF800C041EA7B
:102F8000430141EA0C01C0F8801000207047D0F8DE
:102F90009C1041F00401C0F89C1001207047000013
:102FA00070470000000000007047000000000000B3
:102FB00070B590F89850022D11D1402914D10468B1
:102FC000D4F8A05015F4FE0F2BD0D4F8A4506D0601
:102FD0002CD0D4F8A450ED0130D4002531E0D0F845
:102FE0009C1041F0080125E041290FD10468D4F874
:102FF000B05015F4FE0F14D0D4F8B4506D0615D0AF
:10300000D4F8B450ED0126D4002527E0056D8D429B
:1030100007D900F17C04D0F854E04FF0000C0D46C5
:1030200026E0D0F89C1041F0200103E0D0F89C107D
:1030300041F48071C0F89C10012070BDD4F8A050FC
:10304000ED0FD4F8A440C4F3052404EB050E00F101
:103050007404456C0BE0D4F8B050ED0FD4F8B440D4
:10306000C4F3052404EB050E00F17804C56CF446A6
:1030700005FB0EF6246854F8265015F0804555607F
:1030800054F826E02EF0604508BFCEF38A4504EBE5
:10309000860E156054F8265005F00055956054F8DA
:1030A000264004F000441461BEF80440D461BEF828
:1030B000064014F00F04D460DEF8044004F48014D9
:1030C0005461DEF8044004F4001494619EF8074053
:1030D00004F07F041462DEF804404FEAD4745462B2
:1030E0000ED00EF1080548F24C6E0024C0F6000E1A
:1030F0002E5D1E550134D6681EF80660B442F7D323
:10310000402904D10068C0F8A8C0002070BD412942
:1031100004D10068C0F8B8C0002070BD1F2907D8CE
:103120000068012202FA01F1C0F89810002070BD79
:10313000006801F01F01012202FA01F1C0F89C10A1
:10314000002070BD0000000070470000000000007B
:103150002DE9F04F87B004464AF61000C4F2000093
:1031600001684AF61400C4F200000268206802EA0E
:10317000010A056DD0F85490076DD0F85480036DA6
:103180000293436D0193036D0693436D0593036DA5
:103190000493436D0393436D066D06EA030B5FEAE8
:1031A000CB530BD54FF4807101654AF61001002016
:1031B000C4F2000108602046FFF7C6FF05EA0906D1
:1031C0004AF610095FEA4B50C4F200094FEA8A75CB
:1031D0000ED52068D0F8DC10D0F8E42011404FF470
:1031E000806202650020C9F80000204600F09CFBC8
:1031F00008EA070806F4704655B120680021016509
:103200000AF00300C9F8000020462946FFF7A8FE8F
:10321000DDE9011000EA010708F00F0546B120685A
:10322000314606650020C9F80000204600F084FB06
:1032300007F0F00645B12068294605650020C9F869
:103240000000204600F018FB46B1206831460665B4
:103250000020C9F80000204600F02EFB5FEA0B506A
:1032600000F1BF805FEA8B5000F1C9805FEA0B304C
:1032700000F1D8805FEACB3009D520684FF4803167
:1032800001650020C9F80000204600F049FB5FEA14
:103290004B30DDE9031000EA010509D520684FF441
:1032A000802101650020C9F80000204600F034FBB1
:1032B0005FEA8B30DDE9051000EA010005F060717E
:1032C0000CD522684FF4003313650022C9F80020A2
:1032D000D4F89C2042F08002C4F89C2000F0715584
:1032E00039B1206801650020C9F800002046FFF7C9
:1032F0005BFE4DB1206805650020C9F80000D4F8D8
:103300009C002843C4F89C002068A9F5016188420C
:103310005ED16068816889075AD0016A426A036A8F
:10332000476A114003EA070202F03005D0F8208016
:10333000D0F82490026A049211F00F01D0F824B062
:10334000026A0692426A0592466AD0F820A003D02B
:103350000162204600F0D4FA08EA09072DB160683E
:1033600029460562204600F0D3FA06EA0A0007F46F
:10337000C0754006049800EA0B060AD56068402331
:10338000C16BC26B090C02F03F020362204600F0E1
:10339000BBFADDE9051000EA010706F4FC462DB191
:1033A000606829460562204600F0A6FA07F4F0207E
:1033B00036B161680E62D4F89C103143C4F89C1099
:1033C00030B161680862D4F89C100843C4F89C00CE
:1033D000D4F89C0010B12046FFF7E2FD07B0BDE82D
:1033E000F08F20684FF4006101650020C9F80000EB
:1033F000204600F0A5FA5FEA8B507FF537AF2068D2
:10340000D0F8D810D0F8E02011404FF400720265D7
:103410000020C9F80000204600F08AFA5FEA0B306D
:103420007FF528AF20684FF4002101650020C9F81E
:103430000000204600F01CFA5FEACB303FF51DAFDC
:1034400025E70000000000002DE9F04130B34AF20A
:1034500000080446C4F200080068404502D108F59F
:103460008070606094F8980028B9002084F8990072
:10347000204600F0F5F82068816921F01001816193
:1034800000F032FB054600BF20688169090708D5B6
:1034900000F02AFB401B0B28F6D312E00120BDE808
:1034A000F081816941F00101816100F01DFB054659
:1034B00020688169C90710D100F016FB401B0B285A
:1034C000F6D3D4F89C0040F00100C4F89C0003201F
:1034D00084F898000120BDE8F081816941F0020183
:1034E0008161217C826922F04002012918BF4032AB
:1034F0008261617C826922F48042012908BF02F561
:1035000080428261A17C826922F48052012918BF25
:1035100002F580528261816921F44073D4E902127C
:103520000B438361836923F0A4038361036923F060
:1035300010030361AAB1022A0FD0012A03D18269C4
:1035400042F004020CE08369032A43F080038361A4
:10355000036943F01002026103D1826942F0200244
:103560008261D4E90552E369561E6FF0FF02276AB3
:1035700002EB0323013F43EA4663B1F5407F47EA8C
:10358000030740F20003CFF6FF7303EB054647EA5B
:103590000601C16110D1D4E90B65D4E90917013FD7
:1035A00002EB06226FF00F063A4306EB05173A438B
:1035B00003EB01411143C160216E29B1626ED0F865
:1035C000C0301A43C0F8C020E26DCA4248F2D85158
:1035D000C0F6000109D0D0F8C820A36E22F007027F
:1035E00051F823301A43C0F8C820226C4AB1D0F8F1
:1035F000BC20636C22F0070251F823301A43C0F854
:10360000BC20A26C52B1D0F8BC20E36C22F0700256
:1036100051F8233042EA0312C0F8BC20226D52B1A7
:10362000D0F8BC20636D22F4E06251F8231042EA26
:103630000121C0F8BC10404504D16068816821F0C8
:10364000030181600020C4F89400C4F89C000120AC
:1036500084F898002046FDF75FFABDE8F08100008D
:10366000B0B5B6B0044602A8B8210025CDE934555E
:10367000CDE932553195FCF77DFE4DF200412068D1
:10368000C4F20001884256D04AF20041C4F200015F
:10369000884200F091804AF20001C4F200018842A1
:1036A00040F0E480002003904FF4004002904FF07F
:1036B00080501D9002A800F067FC08B1FDF7E4F906
:1036C00040F2080144F2E040C2F20041C5F60200B7
:1036D0000A68002A02F101020A6008D1C16841F4B7
:1036E0008071C160C16801F4807101910199016824
:1036F00041F008010160006831A900F00800019064
:10370000019803203190022032900020CDE933004F
:103710000920359040F60040C5F6020000F014F98B
:1037200013200021002200F0BBFA132000F0B4FAAD
:103730003F2415258AE04FF4004002904FF080505E
:103740001D9002A8039500F01FFC08B1FDF79CF93D
:1037500040F2080144F2E040C2F20041C5F6020026
:103760000A68002A02F101020A6008D1C16841F426
:103770008071C160C16801F4807101910199016893
:1037800041F008010160006831A900F008000190D3
:1037900001984FF440503190022032900020CDE942
:1037A00033000520359040F60040C5F6020000F0D9
:1037B000CBF8A0249F2549E0002003904FF400405F
:1037C00002904FF080501D9002A800F0DDFB08B180
:1037D000FDF75AF940F2080144F2E040C2F200411C
:1037E000C5F602000A68002A02F101020A6008D147
:1037F000C16841F48071C160C16801F480710191B8
:103800000199016841F002010160006840F6004141
:1038100000F002000190C5F602010198602031908D
:10382000022032900020CDE9330009203590A1F527
:10383000006031A900F088F814200021002200F077
:103840002FFA142000F028FA3F2416250021002228
:10385000284600F025FA284600F01EFA0021002232
:10386000204600F01DFA204600F016FA36B0B0BD32
:10387000704700000000000040F24C12C2F200420B
:10388000904216D111F0010008BF704780B58CB08E
:1038900040F24C1002AAC2F200406B464021FFF7F2
:1038A00087FB18B902A8694602F086FF0CB0BDE894
:1038B00080407047000000007047000000000000DA
:1038C00090F8981001290CD1022180F89810016815
:1038D0008A6922F001028A610021C0F89C10084622
:1038E0007047D0F89C1041F00401C0F89C100120F2
:1038F000704700000000000070470000000000005A
:103900007047000000000000704700000000000049
:103910007047000000000000704700000000000039
:103920007047000000000000704700000000000029
:103930007047000000000000704700000000000019
:1039400070470000000000002DE9F04F83B00C68C4
:10395000002C00F0C68000F1264242F2004702F13E
:10396000FF72C5F602074FEAB22201920A22B8425C
:1039700008BF0922002500274FF0010A009209E044
:103980000C68043734FA0AF20AF1010A05F102055B
:1039900000F0A780AAF10109012202FA09FE14EA47
:1039A0000E08EDD0D1F804B00BF00304A4F1010C23
:1039B000BCF1010F11D803228668AA40CB6826EA21
:1039C0000202AB401A438260CBF30013426822EA42
:1039D0000E0203FA09F31A434260032C1ED003239C
:1039E000C268AB40022C22EA03028B6803FA05F39B
:1039F00042EA0302C26011D16FF0030207F01C0615
:103A000002EA59020F23024403FA06F4D2F820C056
:103A10000B692CEA0404B3402343136203230268B6
:103A2000AB404E689A4306F00303AB4016F4403FA8
:103A300042EA03020260A3D044F2F44340F2084E8B
:103A4000C5F60203C5F6000E1A6842F002021A60BB
:103A50001A6807F00C0302F002020292029A29F09F
:103A60000302019C009E082C38BF26460F2452F802
:103A70000EC09C402CEA040406FA03F34FF0B04C4D
:103A8000234342F80E30DCF800204B6842EA080677
:103A9000DC0258BF22EA08069C02CCF8006040F223
:103AA000040CC5F6000CDCF8002042EA080658BFFA
:103AB00022EA08069C03CCF80060DCF8802042EA89
:103AC000080658BF22EA0806DB03CCF88060DCF861
:103AD0007C2042EA080658BF22EA0806CCF87C603F
:103AE0004EE703B0BDE8F08F40F24460C2F2004000
:103AF000006870470000000040F2080040F2446196
:103B0000C2F20000C2F2004100780A681044086066
:103B1000704700000000000080B5032000F0D0F8DE
:103B200001F072F844F2184148F22463C5F602012C
:103B3000C0F600030A68096801F00F01C2F303220E
:103B4000595C9A5C01F01F0102F01F02D04040F264
:103B50000002C2F2004220FA01F1116040F20401B9
:103B6000C2F2000108600F2000F00AF800281CBF14
:103B7000012080BD00F080F8002080BD0000000022
:103B8000B0B540F20801C2F20001097801B3044661
:103B900040F20400C2F200004FF47A72B2FBF1F17D
:103BA0000068B0FBF1F001F0F3FD0F2C4FF00105C0
:103BB0000CD858B94FF0FF3000222146002500F004
:103BC0006FF840F20C00C2F2000004602846B0BD5D
:103BD0000120B0BD0000000010B54EF6A05E417897
:103BE000CEF2000E90F800C04EF8081CDEF800106F
:103BF00021F00101CEF8001041684EF8041C017B51
:103C0000C37A827A447B1B0643EA0171837B41EAD3
:103C1000C241C27B41EA8441447A41EA4341007A8D
:103C200041EA024141EA042141EA400040EA0C0035
:103C3000CEF8000010BD00004EF62450CEF2000079
:103C4000BFF35F8F016821F48031016000210167BB
:103C500070470000000000004EF6245140F00100C3
:103C6000CEF200010867086840F480300860BFF3B6
:103C70004F8FBFF36F8F704781B044F2F440C5F6A9
:103C80000200016841F002010160006800F00200DA
:103C90000090009801B0704780B504F0B5FB80BD7E
:103CA00070B514460D46064604F0BEFB2946224672
:103CB00002F0BEFD0146304604F0BEFB70BD0000C0
:103CC00080B504F0CDFB80BDB0B544F60C05C5F65B
:103CD000020529684907296805D401F00701081A77
:103CE00018BF0120B0BD21F0070108432860FFF78D
:103CF000FBFE044655F8080C800407D4FFF7F4FED9
:103D0000001BB0F57A7FF5D90120B0BD0020B0BD11
:103D100080B500F029FF44F2204148F22462C5F644
:103D20000201C0F600020968C1F30211515C01F002
:103D30001F01C84080BD000080B544F2384EC5F672
:103D4000020E5EF8103C5EF8101CC1F3053C5EF8F4
:103D50000C1CBCF1000FDEF8042014D0C1F30011DC
:103D6000C2F3CC02514300EE101A03F00301022902
:103D7000B8EE400A0CD071B95EF8381C89060DD433
:103D80009FED341A18E000218160C0E9001180BD68
:103D90009FED2F1A10E09FED2D1A0DE05EF8381CF4
:103DA00049F20002C0F2D032C1F3C10122FA01F19E
:103DB00001EE101AB8EE411ADEF800109FED263A17
:103DC0006FF35F2102EE101ADEF80010C1F34621F6
:103DD000B8EE422A00EE032A00EE10CAB7EE003A0F
:103DE000B8EE400A81EE000A32EE031A02EE101A13
:103DF000B8EE422A20EE010A32EE031A80EE011AD2
:103E0000BCEEC11A80ED001ADEF80010C1F30641C5
:103E100001EE101AB8EE411A31EE031A80EE011AC3
:103E2000BCEEC11A80ED011ADEF80010C1F3066184
:103E300001EE101AB8EE411A31EE031A80EE010AB3
:103E4000BCEEC00A10EE101A816080BD0024744AD6
:103E5000001BB74B0024744C000000390000000028
:103E600080B544F2404EC5F6020E5EF8183C5EF88E
:103E7000181CC1F3055C5EF8141CBCF1000FDEF8E1
:103E8000042014D0C1F30021C2F3CC02514300EE50
:103E9000101A03F003010229B8EE400A0CD071B9E0
:103EA0005EF8401C89060DD49FED341A18E00021FD
:103EB0008160C0E9001180BD9FED2F1A10E09FEDD9
:103EC0002D1A0DE05EF8401C49F20002C0F2D0321B
:103ED000C1F3C10122FA01F101EE101AB8EE411A44
:103EE000DEF800109FED263A6FF35F2102EE101A04
:103EF000DEF80010C1F34621B8EE422A00EE032A94
:103F000000EE10CAB7EE003AB8EE400A81EE000AA1
:103F100032EE031A02EE101AB8EE422A20EE010A1F
:103F200032EE031A80EE011ABCEEC11A80ED001ABF
:103F3000DEF80010C1F3064101EE101AB8EE411A86
:103F400031EE031A80EE011ABCEEC11A80ED011A9F
:103F5000DEF80010C1F3066101EE101AB8EE411A46
:103F600031EE031A80EE010ABCEEC00A10EE101A00
:103F7000816080BD0024744A001BB74B0024744C40
:103F800000000039000000002DE9F04381B0044634
:103F9000C07844F22C490007C5F6020901D4002577
:103FA0002EE0606E4FEA305003280DD80025DFE880
:103FB00000F0020E1714D9F80000002540F400307C
:103FC000C9F8000055B913E001253DB910E004F12E
:103FD0000800022102F0C8FD05464DB1A84611E0D7
:103FE00004F12800022102F04FFE0546002DF5D114
:103FF000D9F82400616E20F440100843C9F8240069
:104000004FF000086078C00730D0A06D042807D8B2
:10401000DFE800F00A131C030300FDB1A84625E009
:104020000125002DFAD119E0D9F8000040F4003044
:10403000C9F80000002DF1D110E004F108000021C2
:1040400002F092FD0546002DE8D107E004F12800BA
:10405000002102F019FE0546002DDFD1D9F8240019
:10406000A16D20F007000843C9F8240060784007DC
:1040700034D5D4F8A4004FEA7050052807D8DFE8FB
:1040800000F00A131C030303FDB1A84626E0012536
:10409000002DFAD119E0D9F8000040F40030C9F839
:1040A0000000002DF1D110E004F10800002102F021
:1040B0005BFD0546002DE8D107E004F12800002152
:1040C00002F0E2FD0546002DDFD1D9F82C00D4F82E
:1040D000A41020F460000843C9F82C0060780007A1
:1040E00034D5D4F8A8004FEA3060052807D8DFE8B7
:1040F00000F00A131C030303FDB1A84626E00125C6
:10410000002DFAD119E0D9F8000040F40030C9F8C8
:104110000000002DF1D110E004F10800002102F0B0
:1041200023FD0546002DE8D107E004F12800002119
:1041300002F0AAFD0546002DDFD1D9F82C00D4F8F5
:10414000A81020F0E0600843C9F82C00E078800750
:1041500028D5E06C4FEA3010032806D8DFE800F0DD
:1041600002091202B5B1A8461CE00125002DFAD1C2
:1041700010E0D9F8000040F40030C9F80000002D2C
:10418000F1D107E004F10800022102F0EDFC054640
:10419000002DE8D1D9F82000E16C20F03000084370
:1041A000C9F820006078C00632D5E06D4FEA3030A3
:1041B000042807D8DFE800F00A131C030300FDB150
:1041C000A84625E00125002DFAD119E0D9F8000014
:1041D00040F40030C9F80000002DF1D110E004F1E6
:1041E0000800002102F0C0FC0546002DE8D107E0E0
:1041F00004F12800002102F047FD0546002DDFD123
:10420000D9F82400E16D20F4E0400843C9F8240007
:104210006078800626D5206E4FEA3040052807D802
:10422000DFE800F0030A100303039DB1A84619E07C
:104230000125002DFAD10DE004F10800012102F062
:1042400093FC04E004F12800012102F01DFD054665
:10425000002DEBD1D9F82400216E20F4E020084392
:10426000C9F824006078400628D5D4F8AC004FEA9D
:104270003070052807D8DFE800F0030A10030303B5
:104280009DB1A8461AE00125002DFAD10DE004F1F8
:104290000800012102F068FC04E004F1280001217B
:1042A00002F0F2FC0546002DEBD1D9F82C00D4F831
:1042B000AC1020F0E0400843C9F82C0060780006FC
:1042C00020D5E06ED8B1B0F1005F12D0B0F1805FC0
:1042D00025D1D9F8000040F40030C9F8000085B9B4
:1042E000D9F82400E16E20F040500843C9F82400BA
:1042F00008E004F10800012102F036FC0546002D1B
:10430000EED0A846E078C0072AD0A06C03280AD8CF
:10431000DFE800F0020D1602D5B1A84620E0012525
:10432000002DEED1DCE70125002DF6D110E0D9F803
:10433000000040F40030C9F80000002DEDD107E086
:1043400004F10800022102F00FFC0546002DE4D123
:10435000D9F82000A16C20F003000843C9F8200020
:10436000A078400642D5D9F8D40340F48070C9F84B
:10437000D403FFF7B9FB0646D9F8D403C00505D42A
:10438000FFF7B2FB801B6528F6D303256DBBD9F878
:104390004410D4F8B000414011F4407F11D0D9F856
:1043A0004410D9F8442042F48032C9F84420D9F8A6
:1043B000442021F4407122F48032C9F84420C9F825
:1043C0004410B0F5807F0FD1FFF78EFB064641F217
:1043D000893700BFD9F84400800705D4FFF784FB74
:1043E000801BB842F6D3032585B1A8462078C007C4
:1043F00042D0A06F4FEAF000052823D8DFE800F094
:1044000003262C0303037DB3A84635E04FF6CF7394
:10441000D4F8B00059F81C2CC0F2FF0300F440712E
:1044200022F47C5203EA1013B1F5407F08BF1A430F
:104430006FF31F3049F81C2CD9F844100843C9F811
:104440004400D3E70125002DDED10DE004F1080082
:10445000012102F089FB04E004F12800012102F0AF
:1044600013FC0546002DCFD1D9F82800A16F20F00C
:1044700038000843C9F828002078800724D5606FE9
:10448000052807D8DFE800F0030A100303039DB1F5
:10449000A84619E00125002DFAD10DE004F108002D
:1044A000012102F061FB04E004F12800012102F087
:1044B000EBFB0546002DEBD1D9F82800616F20F009
:1044C00007000843C9F828002078400726D5D4F80B
:1044D0009000052807D8DFE800F0030A1003030363
:1044E0009DB1A8461AE00125002DFAD10DE004F196
:1044F0000800012102F038FB04E004F1280001214A
:1045000002F0C2FB0546002DEBD1D9F82C00D4F8FF
:10451000901020F007000843C9F82C00207880068E
:1045200028D5D4F88C004FEA3070052807D8DFE88A
:1045300000F0030A100303039DB1A8461AE0012509
:10454000002DFAD10DE004F10800002102F00CFB6F
:1045500004E004F12800022102F096FB0546002D3C
:10456000EBD1D9F82800D4F88C1020F0E0400843B3
:10457000C9F828002078400628D5D4F898004FEADA
:10458000B020052807D8DFE800F0030A1003030372
:104590009DB1A8461AE00125002DFAD10DE004F1E5
:1045A0000800002102F0E0FA04E004F128000221F2
:1045B00002F06AFB0546002DEBD1D9F82C00D4F8A7
:1045C000981020F4E0500843C9F82C002078000629
:1045D00028D5D4F89C004FEA7030052807D8DFE8CA
:1045E00000F0030A100303039DB1A8461AE0012559
:1045F000002DFAD10DE004F10800002102F0B4FA18
:1046000004E004F12800022102F03EFB0546002DE3
:10461000EBD1D9F82C00D4F89C1020F4604008436A
:10462000C9F82C002078000716D5D4F88000B0F522
:10463000805F08D104F12800022102F025FB002848
:1046400018BF4FF00108D9F82800D4F8801020F4E2
:1046500040500843C9F828002078C00616D5D4F881
:104660009400B0F5807F08D104F12800022102F007
:104670000BFB002818BF4FF00108D9F82C00D4F824
:10468000941020F440700843C9F82C00A07800076B
:1046900022D5D4F8A000B0F5003F1AD0B0F5803F85
:1046A00011D0C8BB04F10800002102F05DFA0546F4
:1046B0008DB9D9F82C00D4F8A01020F4403008436C
:1046C000C9F82C0008E004F12800022102F0DCFA0D
:1046D0000546002DEDD0A846A078400729D5D4F88E
:1046E0008400B0F5401F21D0B0F5001F18D0B0F500
:1046F000801F40F0BB80D9F8000040F40030C9F8BA
:104700000000ADB9D9F82800D4F8841020F4401086
:104710000843C9F828000CE00125002DDBD1C8E7CB
:1047200004F12800012102F0AFFA0546002DE9D07E
:10473000A846A078C00720D0206DB0F5803F10D0EB
:10474000B8B9D9F8000040F40030C9F800009DB9AC
:10475000D9F82000216D20F480300843C9F82000EA
:104760000BE004F10800022102F0FEF905461DB934
:10477000EEE70125002DEBD0A846E078800608D5AD
:1047800004F12800022102F07FFA002818BF4FF040
:104790000108D4E900108A0377D5E26F6FF00103B6
:1047A00003EB3223022B0AD34FEA32233BB1012B16
:1047B00061D1D9F8003043F40033C9F80030002D3E
:1047C0005CD0CA0264D48A026CD44A0075D4B1F1B8
:1047D000FF3F40F38380090200F18B80C00707D0C0
:1047E00004F10800002102F0BFF9002818BF0546B7
:1047F0002079800707D504F10800012102F0B4F9FF
:10480000002818BF05462079400707D504F10800A5
:10481000022102F0A9F9002818BF054620790007F7
:1048200007D504F12800002102F02EFA002818BF55
:1048300005462079C00607D504F12800012102F0C1
:1048400023FA002818BF05462079800607D504F111
:104850002800022102F018FA002818BF0125002DB7
:1048600018BF0125284601B0BDE8F0830125002DC1
:104870007FF45EAF46E70125002DA2D1D9F828309C
:1048800023F440731A43C9F828204546CA029AD532
:10489000D9F82420236F22F000421A43C9F82420BB
:1048A0008A0292D5D9F82420A36E22F080721A438E
:1048B000C9F824204A007FF58AAF59F81C2C22F44D
:1048C000004249F81C2CD4F8B42059F81C3C1A4377
:1048D00049F81C2CB1F1FF3F3FF77DAFD9F82020FC
:1048E000636D22F040521A43C9F8202009027FF577
:1048F00075AFD9F82810D4F8882021F4400111436D
:10490000C9F82810C0077FF46BAF71E70000000002
:104910002DE9F04381B0002800F0F48042F2000855
:104920000446C5F200288946D8F8000000F00F00C0
:1049300088420ED2D8F8000020F00F0040EA0900AB
:10494000C8F80000D8F8000000F00F00484540F01B
:10495000D980206844F218474107C5F602070AD5F6
:1049600021693A6802F07002914204D93A6822F053
:1049700070021143396001070AD561697A6802F053
:104980007002914204D97A6822F070021143796072
:10499000C1060AD5A1697A6802F4E062914204D99D
:1049A0007A6822F4E0621143796081060AD5E169F0
:1049B000BA6802F07002914204D9BA6822F070021B
:1049C0001143B96081070AD5E1683A6802F00F0225
:1049D000914204D93A6822F00F0211433960C007AE
:1049E0007ED1206881070AD5E1683A6802F00F029B
:1049F000914204D23A6822F00F0211433960D8F88C
:104A0000001001F00F0149450DD9D8F8001021F030
:104A10000F0141EA0901C8F80010D8F8001001F0B0
:104A20000F0149456ED141070AD521693A6802F064
:104A30007002914204D23A6822F070021143396048
:104A400001070AD561697A6802F07002914204D2C6
:104A50007A6822F0700211437960C1060AD5A16913
:104A60007A6802F4E062914204D27A6822F4E06249
:104A70001143796080060AD5E069B96801F07001D8
:104A8000884204D2B96821F070010843B86000F090
:104A9000BBF8396848F22462C0F600023B68C1F3F3
:104AA000032103F00F03515CD25C01F01F01C840E9
:104AB00002F01F0140F2000220FA01F1C2F20042AE
:104AC000116040F2040140F20C02C2F20001C2F295
:104AD000000208601068FFF753F801B0BDE8F083EA
:104AE000386820F47061D4E90102012841EA02012A
:104AF00039600BD003282BD002282ED157F8181C70
:104B0000890307D4012001B0BDE8F08357F8181CD1
:104B1000C905F7D557F8081C21F00701084347F8E5
:104B2000080CFEF7E1FF064641F2883557F8080CFD
:104B3000616800F03800B0EBC10F3FF452AFFEF7F0
:104B4000D3FF801BA842F1D9032001B0BDE8F08358
:104B500057F8181C8901D5D5DCE757F8181C490708
:104B6000D0D5D7E70000000080B500F04DF844F242
:104B7000184148F22463C5F60201C0F600030A6832
:104B8000096801F00F01C2F30322595C9A5C02F03C
:104B90001F0220FA02F201F01F0040F2000122FA87
:104BA00000F0C2F20041086040F20401C2F20001CC
:104BB0000A6080BD0000000080B5FFF7D5FF44F219
:104BC0001C4148F22462C5F60201C0F600020968E1
:104BD000C1F30211515C01F01F01C84080BD00000B
:104BE00080B5FFF7C1FF44F21C4148F22462C5F6CC
:104BF0000201C0F600020968C1F30221515C01F014
:104C00001F01C84080BD000044F20041C5F602010A
:104C10000869C0F3C20003280FD002282AD070BB55
:104C20000868800649F20000C0F2D03058BF7047D3
:104C30000968C1F3C101C84070478A6A886AC0F335
:104C4000051CC86ABCF1000F4B6B1DD0C3F3CC032D
:104C500000F00100584302F00302022A00EE100A9D
:104C6000B8EE400A12D0A2B90868800614D49FEDAD
:104C7000261A1EE043F20060C0F26E10704740F644
:104C80000010C0F23D007047002070479FED1D1AD4
:104C90000FE09FED1B1A0CE0086849F20002C0F219
:104CA000D032C0F3C10022FA00F001EE100AB8EED3
:104CB000411A086B9FED153A6FF35F2002EE100A60
:104CC000086BC0F34620B8EE422A013000EE032AFA
:104CD00000EE10CAB7EE003AB8EE400A81EE000AC4
:104CE00032EE031A20EE010A01EE100AB8EE411A64
:104CF00080EE010ABCEEC00A10EE100A704700BF39
:104D00000024744A001BB74B0024744C0000003987
:104D10002DE9F04381B0F8B18046007844F20049B3
:104D2000C007C5F602095CD0D9F8100000F03801C0
:104D3000D9F82800102905D018290FD100F0030058
:104D400002280BD1D9F80000800346D5D8F804001A
:104D5000002842D1012731E00127E2E2D8F80450CF
:104D60002DB1B5F5A02F0DD0B5F5803F10D0D9F8F5
:104D7000000020F48030C9F80000D9F8000020F4C9
:104D8000802009E0D9F8000040F48020C9F8000034
:104D9000D9F8000040F48030C9F80000FEF7A4FE06
:104DA000002D054615D000BFD9F80000800314D4AB
:104DB000FEF79AFE401B6428F6D90327002000283E
:104DC00000F0AF820DE000BFFEF78EFE401B6428AE
:104DD000F3D8D9F800008003F6D40120002800F0B1
:104DE000A08298F8000080076AD5D9F8100010F06A
:104DF0003801D9F828001DD0182908BF5FEA807053
:104E000018D0D8F80C00D9F80010002840D021F0B4
:104E100019010843C9F80000FEF766FE054600BF09
:104E2000D9F80000400727D4FEF75EFE401B022899
:104E3000F6D91EE0D9F80000400704D5D8F80C00D8
:104E4000002800F05E81D9F80000D8F80C1020F09E
:104E500019000843C9F80000FEF746FE054600BFEA
:104E6000D9F80000400707D4FEF73EFE401B022899
:104E7000F6D90327002420E0D9F80400D8F8101050
:104E800020F0FE40012440EA0160C9F8040014E06B
:104E900021F00100C9F80000FEF726FE05460126B4
:104EA000D9F8000010F0040086EA900405D0FEF75F
:104EB0001BFE401B0328F3D30327002C00F0318294
:104EC00098F80000C00656D5D9F8100000F0380157
:104ED000D9F82800082905D0182917D100F00300B7
:104EE000012813D1D9F80000C00503D5D8F81C005B
:104EF00080283BD1D9F80C00D8F8201020F07C5045
:104F0000012440EA0160C9F80C0031E0D8F81C0027
:104F10000028D9F8000012D040F08000C9F8000045
:104F2000FEF7E2FD054600BFD9F80000C005E1D458
:104F3000FEF7DAFD401B0228F6D9032717E020F020
:104F40008000C9F80000FEF7CFFD0546012600BF2E
:104F5000D9F8000010F4807086EA102408D0FEF71B
:104F6000C3FD401B0328F3D3032701E001270024DE
:104F7000002C00F0D68198F8000000071CD498F8A7
:104F80000000800631D498F80000400745D4D8F8D6
:104F90002440002C00F09180D9F8100000F0380077
:104FA000182840F08C80012CD9F82810D9F830004E
:104FB00040F0A9800127B4E1D8F814000028D9F8FE
:104FC00074003ED040F00100C9F87400FEF78CFD7B
:104FD000054600BFD9F874008007D0D4FEF784FDE1
:104FE000401B0228F6D903279BE1D8F818000028B7
:104FF000D9F800004DD040F48050C9F80000FEF709
:1050000073FD0546D9F800008004BCD4FEF76CFDA2
:10501000401B0228F6D9032783E1D9F8000440F4A5
:105020008070C9F80004FEF75FFD0546D9F800045A
:10503000C0051AD4FEF758FD401B6428F6D9032793
:105040006FE120F00100C9F87400FEF74DFD054640
:10505000032700BFD9F8740080077FF590AFFEF7F3
:1050600043FD401B0228F5D95BE1D8F808502DB16B
:10507000052D00F08280012D00F08580D9F87000A8
:1050800020F00100C9F87000D9F8700020F0040089
:105090007DE020F48050C9F80000FEF725FD0546AC
:1050A000032700BFD9F8000080047FF56CAFFEF73E
:1050B0001BFD401B0228F5D933E1002731E1D9F867
:1050C000000020F08070C9F80000FEF70DFD022CF2
:1050D00005464FF0030709D1D9F80000800178D5C3
:1050E000FEF702FD401B0228F6D91AE1D9F80000AC
:1050F000800140F1E780FEF7F7FC401B0228F5D95C
:105100000FE10127B6E601F00302D8F828309A42F1
:1051100040F0DA80C1F30511D8F82C20914240F01C
:10512000D7800146D8F830206FF35F21013A9142D1
:1051300040F0D080C0F34622D8F8341001398A42BA
:1051400040F0CA80C0F30642D8F8381001398A42CC
:1051500040F0C480C0F30660D8F83C1001398842A2
:1051600040F0BE80D9F83400D8F84810C0F3CC0025
:10517000814240F0B7800027D3E0D9F8700040F0BA
:105180000400C9F87000D9F8700040F00100C9F8B7
:105190007000FEF7A9FC002D054641F288344FF05F
:1051A000030711D0D9F8700080073FF5F0AEFEF785
:1051B0009BFC401BA042F5D9B3E000BFFEF794FC76
:1051C000401BA04200F2AD80D9F870008007F5D4F2
:1051D000DDE608F12807D9F8280040F2F3318843CA
:1051E0008ECF0843591E40EA02104FF47E426FF3FF
:1051F0005F21C9F8280002EB47204FF4FE0280B27D
:10520000D8F83C300844D8F8381002EB01414FF090
:10521000FE4201F4FE0102EB0362084402F0FE418B
:105220000844C9F83000D9F82C004FF6F87120F086
:105230000100C9F82C00D9F83400D8F84820884378
:1052400040EAC200C9F83400D9F82C00D8F8401060
:1052500020F00C000843C9F82C00D9F82C00D8F82D
:10526000441020F002000843C9F82C00D9F82C00A3
:1052700040F48030C9F82C00D9F82C0040F40030FC
:10528000C9F82C00D9F82C0040F48020C9F82C0073
:10529000D9F82C0040F00100C9F82C00D9F8000022
:1052A00040F08070C9F80000FEF71EFC044603279A
:1052B000D9F80000800109D4FEF716FC001B022873
:1052C000F6D92EE000272CE001272AE0002728E06D
:1052D000012726E0012724E0012722E0012720E022
:1052E00001271EE0D9F82C0020F00100C9F82C009D
:1052F000FEF7FAFB0546FEF7F7FBA842FBD0D9F80C
:1053000034004FF6F871D8F848208843002740EA67
:10531000C200C9F83400D9F82C0040F00100C9F8E7
:105320002C00F8B201B0BDE8F083000000000000DE
:105330002DE9F041002800F0BC80044643F6000649
:10534000C4F2000643F20007256843F60048B54260
:10535000C4F20107C4F200084FF00000A06204D0BC
:10536000454518BFBD4240F0A080204601F094FDA5
:10537000B54218BFBD4240F08B80102800F29980E2
:1053800094F8810028B9002084F88000204600F0BD
:1053900093F8022084F881002068D4F818E00268AD
:1053A000BEF1806F22F00102026087680FD162684F
:1053B0002AB1B2F5800F0AD1A36B23B13AB9A26B1F
:1053C000B2F1805F03D1026842F4805202606368E8
:1053D00007F4F81713F4800C08D0E668072E05D3FD
:1053E0000668256D26F480762E4302E0066826F4D2
:1053F00080760660E669A56A47EA0607E66B47EA33
:10540000050747EA0607D4E90285D4E9042145EAFD
:1054100007058560656B43EA0E07666A47EA05077C
:10542000A56B47EA060747EA050742EA0702276A2B
:1054300041EA0201E26C41EA0701A76C41EA02017C
:10544000A26D41EA080141EA070141EA0201C16097
:105450004BB98168012262F3CC218160816802220C
:1054600062F34A218160016DBCF1000F21F001015E
:10547000016505D0C168626D21F000411143C16032
:105480000020C4F88400012184F88110BDE8F08177
:10549000454518BF08280CD8B54218BFBD423FF497
:1054A0006CAF45453FF469AF6AE7E0680F287FF6C7
:1054B0005CAF0120BDE8F08170B5B6B0044641F2A2
:1054C000004502A8B82100263596CDE9336632960C
:1054D000C5F600053196FAF74DFF2068A84201D0C5
:1054E00036B070BD4FF48040029002A803962D960E
:1054F000FEF74AFD08B1FBF7C7FA44F2E040C5F6F3
:105500000200416941F020014161416901F020013F
:1055100001910199016841F001010160006831A920
:1055200000F0010001900198A020319002203290FB
:105530000020CDE933000820359005F5F630FEF760
:1055400003FA36B070BD00002DE9F0471D4617463E
:105550000E460446D0F80090FEF7C6FA94F8811083
:1055600001290BD180460120002E18BF002F01D148
:10557000BDE8F08794F88000012802D10220BDE840
:10558000F087012084F88000032184F88110002135
:10559000C4F88410E665A4F86070A4F862706166CF
:1055A000A4F86810A4F86A10A2682167B2F5C02FA9
:1055B0006167216803D1086840F4006203E051F894
:1055C0000C2F60F352420A604FF6FF722068416868
:1055D000914339444160016841F001010160616813
:1055E000B1F5800F03D1016841F400710160E168F9
:1055F000102934D3B4F86200002800F0AB806E1C90
:105600000FE000BFE16D51F8042B0262E165B4F8D0
:1056100062000138A4F86200B4F86200002800F0CB
:105620009980206841698907ECD4FEF75DFA002E65
:10563000F2D0A0EB0800A842EED3204601F0D0FB48
:10564000D4F8840040F48070C4F88400012084F809
:105650008100002084F880000320BDE8F087B4F8C2
:105660006200072933D9002874D04FF6FE706E1CF3
:10567000471C11E0E06D39460088A9F8200002209F
:10568000E26D1044E065B4F862000844A4F86200DA
:10569000B4F8620000285DD020684169890708D409
:1056A000FEF722FA002EF3D0A0EB0800A842EFD3B9
:1056B000C3E7B4F862100229DCD3E16B0029D9D02A
:1056C000E16D0968016204204FF6FE71D8E70028F9
:1056D00040D04FF6FE706E1CA0F1020A471C10E08D
:1056E000E16D097880F8201001203946E26D104400
:1056F000E065B4F862000844A4F86200B4F86200FF
:1057000040B320684169890708D4FEF7EDF9002EFF
:10571000F4D0A0EB0800A842F0D38EE7B4F86210F2
:10572000042908D3E16B412905D3E16D09680162C1
:1057300004205146DAE7B4F862100229D0D3E16BB5
:105740000029CDD0E06D4FF6FE710088A9F8200049
:105750000220CBE720462946424601F0A9FB28B1AA
:10576000D4F8840040F02000C4F88400204601F002
:1057700037FB012084F88100002084F88000D4F8F1
:105780008400002818BF0120BDE8F0870000000059
:1057900080B501F001FC80BDB0B590F83C20012A35
:1057A0004FF0020266D0012380F83C3080F83D20A3
:1057B00040F2004C0268C4F2010C42F4806363457D
:1057C0005368D2F808E002BF23F470034C68234307
:1057D0004DF6FF740D68C4F2000423F07003A2427A
:1057E00043EA0503536014DC40F2FF73C4F2000384
:1057F0009A4222DD40F60003C4F200039A422ED002
:1058000040F60043C4F200039A4228D041F6000358
:1058100021E04FF6FF73C4F200039A4213DD002328
:10582000C4F201039A421AD044F20003C4F2010305
:105830009A4214D0624512D016E0B2F1804F0ED0D9
:1058400040F2004307E04EF20003C4F200039A4224
:1058500005D04EF20043C4F200039A4204D12EF068
:1058600080038968194391600022012180F83D106E
:1058700080F83C201046B0BD80B586B041F60002ED
:105880000068C4F20002002190420591CDE90311A5
:105890000291019101D006B080BD44F2E040C5F60E
:1058A0000200026842F002020260006800F002009A
:1058B000009000984FF4004001900220CDE90201D1
:1058C000CDE9041040F2004001A9C5F60200FEF740
:1058D0003BF806B080BD0000B0B5044690F83C002F
:1058E000012801D10220B0BD0D464FEAB2010529C1
:1058F0004FF0010084F83C0048D8DFE801F0030BCA
:10590000131B23332068294601F0C2FC206850F89D
:10591000181F1EE02068294601F01EFD206850F87F
:10592000181F26E02068294601F06EFD206850F817
:105930001C1F0EE02068294601F0BEFD206850F8CB
:105940001C1F16E02068294601F0FAFD206850F877
:10595000541F41F008010160016821F00401016059
:1059600029690FE02068294601F02EFE206850F8D2
:10597000541F41F400610160016821F480610160FD
:10598000296909020268114301600020002184F89E
:105990003C10B0BD0000000060B310B5044690F8A4
:1059A0003D0028B9002084F83C00204600F024F88F
:1059B000022084F83D002068211D01F0B5FB012084
:1059C00084F8480084F83E0084F83F0084F84000E2
:1059D00084F8410084F8420084F8430084F84400CD
:1059E00084F8450084F8460084F8470084F83D00B8
:1059F000002010BD0120704781B041F60001006811
:105A0000C4F20001884201D001B0704744F2E8407E
:105A1000C5F60200016841F040010160006800F035
:105A200040000090009801B07047000000000000A6
:105A300090F88410012901D1022070472421C0F878
:105A4000881002681368116823F0005321F00101E7
:105A500011600021416613602022C0F8882080F880
:105A600084100846704700007047000000000000E6
:105A70007047000000000000B0B5044690F88400B4
:105A8000012801D10220B0BD012084F88400242027
:105A9000C4F8880020680568026822F001020260EC
:105AA000826822F0606211438160204601F0D0FDDF
:105AB000206805602020C4F88800002084F8840055
:105AC000B0BD000000000000B0B5044690F88400AE
:105AD000012801D10220B0BD012084F884002420D7
